{
  "_format": "hh-sol-artifact-1",
  "contractName": "H2OToken",
  "sourceName": "contracts/H2OToken.sol",
  "abi": [
    {
      "inputs": [],
      "stateMutability": "nonpayable",
      "type": "constructor"
    },
    {
      "anonymous": false,
      "inputs": [
        {
          "indexed": true,
          "internalType": "address",
          "name": "from",
          "type": "address"
        },
        {
          "indexed": true,
          "internalType": "address",
          "name": "to",
          "type": "address"
        },
        {
          "indexed": false,
          "internalType": "uint256",
          "name": "value",
          "type": "uint256"
        }
      ],
      "name": "Transfer",
      "type": "event"
    },
    {
      "inputs": [
        {
          "internalType": "address",
          "name": "",
          "type": "address"
        }
      ],
      "name": "balanceOf",
      "outputs": [
        {
          "internalType": "uint256",
          "name": "",
          "type": "uint256"
        }
      ],
      "stateMutability": "view",
      "type": "function"
    },
    {
      "inputs": [],
      "name": "decimals",
      "outputs": [
        {
          "internalType": "uint8",
          "name": "",
          "type": "uint8"
        }
      ],
      "stateMutability": "view",
      "type": "function"
    },
    {
      "inputs": [
        {
          "internalType": "address",
          "name": "to",
          "type": "address"
        },
        {
          "internalType": "uint256",
          "name": "amount",
          "type": "uint256"
        }
      ],
      "name": "mint",
      "outputs": [],
      "stateMutability": "nonpayable",
      "type": "function"
    },
    {
      "inputs": [],
      "name": "name",
      "outputs": [
        {
          "internalType": "string",
          "name": "",
          "type": "string"
        }
      ],
      "stateMutability": "view",
      "type": "function"
    },
    {
      "inputs": [],
      "name": "owner",
      "outputs": [
        {
          "internalType": "address",
          "name": "",
          "type": "address"
        }
      ],
      "stateMutability": "view",
      "type": "function"
    },
    {
      "inputs": [],
      "name": "symbol",
      "outputs": [
        {
          "internalType": "string",
          "name": "",
          "type": "string"
        }
      ],
      "stateMutability": "view",
      "type": "function"
    },
    {
      "inputs": [],
      "name": "totalSupply",
      "outputs": [
        {
          "internalType": "uint256",
          "name": "",
          "type": "uint256"
        }
      ],
      "stateMutability": "view",
      "type": "function"
    },
    {
      "inputs": [
        {
          "internalType": "address",
          "name": "to",
          "type": "address"
        },
        {
          "internalType": "uint256",
          "name": "amount",
          "type": "uint256"
        }
      ],
      "name": "transfer",
      "outputs": [],
      "stateMutability": "nonpayable",
      "type": "function"
    }
  ],
  "bytecode": "0x60806040526040518060400160405280600d81526020017f5261696e436861696e2048324f0000000000000000000000000000000000000081525060009081610048919061034d565b506040518060400160405280600381526020017f48324f00000000000000000000000000000000000000000000000000000000008152506001908161008d919061034d565b506000600260006101000a81548160ff021916908360ff1602179055503480156100b657600080fd5b5033600560006101000a81548173ffffffffffffffffffffffffffffffffffffffff021916908373ffffffffffffffffffffffffffffffffffffffff16021790555061041f565b600081519050919050565b7f4e487b7100000000000000000000000000000000000000000000000000000000600052604160045260246000fd5b7f4e487b7100000000000000000000000000000000000000000000000000000000600052602260045260246000fd5b6000600282049050600182168061017e57607f821691505b60208210810361019157610190610137565b5b50919050565b60008190508160005260206000209050919050565b60006020601f8301049050919050565b600082821b905092915050565b6000600883026101f97fffffffffffffffffffffffffffffffffffffffffffffffffffffffffffffffff826101bc565b61020386836101bc565b95508019841693508086168417925050509392505050565b6000819050919050565b6000819050919050565b600061024a6102456102408461021b565b610225565b61021b565b9050919050565b6000819050919050565b6102648361022f565b61027861027082610251565b8484546101c9565b825550505050565b600090565b61028d610280565b61029881848461025b565b505050565b5b818110156102bc576102b1600082610285565b60018101905061029e565b5050565b601f821115610301576102d281610197565b6102db846101ac565b810160208510156102ea578190505b6102fe6102f6856101ac565b83018261029d565b50505b505050565b600082821c905092915050565b600061032460001984600802610306565b1980831691505092915050565b600061033d8383610313565b9150826002028217905092915050565b610356826100fd565b67ffffffffffffffff81111561036f5761036e610108565b5b6103798254610166565b6103848282856102c0565b600060209050601f8311600181146103b757600084156103a5578287015190505b6103af8582610331565b865550610417565b601f1984166103c586610197565b60005b828110156103ed578489015182556001820191506020850194506020810190506103c8565b8683101561040a5784890151610406601f891682610313565b8355505b6001600288020188555050505b505050505050565b610a468061042e6000396000f3fe608060405234801561001057600080fd5b50600436106100885760003560e01c806370a082311161005b57806370a08231146101035780638da5cb5b1461013357806395d89b4114610151578063a9059cbb1461016f57610088565b806306fdde031461008d57806318160ddd146100ab578063313ce567146100c957806340c10f19146100e7575b600080fd5b61009561018b565b6040516100a2919061068e565b60405180910390f35b6100b3610219565b6040516100c091906106c9565b60405180910390f35b6100d161021f565b6040516100de9190610700565b60405180910390f35b61010160048036038101906100fc91906107aa565b610232565b005b61011d600480360381019061011891906107ea565b61039b565b60405161012a91906106c9565b60405180910390f35b61013b6103b3565b6040516101489190610826565b60405180910390f35b6101596103d9565b604051610166919061068e565b60405180910390f35b610189600480360381019061018491906107aa565b610467565b005b6000805461019890610870565b80601f01602080910402602001604051908101604052809291908181526020018280546101c490610870565b80156102115780601f106101e657610100808354040283529160200191610211565b820191906000526020600020905b8154815290600101906020018083116101f457829003601f168201915b505050505081565b60035481565b600260009054906101000a900460ff1681565b600560009054906101000a900473ffffffffffffffffffffffffffffffffffffffff1673ffffffffffffffffffffffffffffffffffffffff163373ffffffffffffffffffffffffffffffffffffffff16146102c2576040517f08c379a00000000000000000000000000000000000000000000000000000000081526004016102b9906108ed565b60405180910390fd5b80600460008473ffffffffffffffffffffffffffffffffffffffff1673ffffffffffffffffffffffffffffffffffffffff1681526020019081526020016000206000828254610311919061093c565b92505081905550806003600082825461032a919061093c565b925050819055508173ffffffffffffffffffffffffffffffffffffffff16600073ffffffffffffffffffffffffffffffffffffffff167fddf252ad1be2c89b69c2b068fc378daa952ba7f163c4a11628f55a4df523b3ef8360405161038f91906106c9565b60405180910390a35050565b60046020528060005260406000206000915090505481565b600560009054906101000a900473ffffffffffffffffffffffffffffffffffffffff1681565b600180546103e690610870565b80601f016020809104026020016040519081016040528092919081815260200182805461041290610870565b801561045f5780601f106104345761010080835404028352916020019161045f565b820191906000526020600020905b81548152906001019060200180831161044257829003601f168201915b505050505081565b80600460003373ffffffffffffffffffffffffffffffffffffffff1673ffffffffffffffffffffffffffffffffffffffff1681526020019081526020016000205410156104e9576040517f08c379a00000000000000000000000000000000000000000000000000000000081526004016104e0906109bc565b60405180910390fd5b80600460003373ffffffffffffffffffffffffffffffffffffffff1673ffffffffffffffffffffffffffffffffffffffff168152602001908152602001600020600082825461053891906109dc565b9250508190555080600460008473ffffffffffffffffffffffffffffffffffffffff1673ffffffffffffffffffffffffffffffffffffffff168152602001908152602001600020600082825461058e919061093c565b925050819055508173ffffffffffffffffffffffffffffffffffffffff163373ffffffffffffffffffffffffffffffffffffffff167fddf252ad1be2c89b69c2b068fc378daa952ba7f163c4a11628f55a4df523b3ef836040516105f291906106c9565b60405180910390a35050565b600081519050919050565b600082825260208201905092915050565b60005b8381101561063857808201518184015260208101905061061d565b60008484015250505050565b6000601f19601f8301169050919050565b6000610660826105fe565b61066a8185610609565b935061067a81856020860161061a565b61068381610644565b840191505092915050565b600060208201905081810360008301526106a88184610655565b905092915050565b6000819050919050565b6106c3816106b0565b82525050565b60006020820190506106de60008301846106ba565b92915050565b600060ff82169050919050565b6106fa816106e4565b82525050565b600060208201905061071560008301846106f1565b92915050565b600080fd5b600073ffffffffffffffffffffffffffffffffffffffff82169050919050565b600061074b82610720565b9050919050565b61075b81610740565b811461076657600080fd5b50565b60008135905061077881610752565b92915050565b610787816106b0565b811461079257600080fd5b50565b6000813590506107a48161077e565b92915050565b600080604083850312156107c1576107c061071b565b5b60006107cf85828601610769565b92505060206107e085828601610795565b9150509250929050565b600060208284031215610800576107ff61071b565b5b600061080e84828501610769565b91505092915050565b61082081610740565b82525050565b600060208201905061083b6000830184610817565b92915050565b7f4e487b7100000000000000000000000000000000000000000000000000000000600052602260045260246000fd5b6000600282049050600182168061088857607f821691505b60208210810361089b5761089a610841565b5b50919050565b7f4f6e6c79206f776e65722063616e206d696e7420746f6b656e73000000000000600082015250565b60006108d7601a83610609565b91506108e2826108a1565b602082019050919050565b60006020820190508181036000830152610906816108ca565b9050919050565b7f4e487b7100000000000000000000000000000000000000000000000000000000600052601160045260246000fd5b6000610947826106b0565b9150610952836106b0565b925082820190508082111561096a5761096961090d565b5b92915050565b7f496e73756666696369656e742062616c616e6365000000000000000000000000600082015250565b60006109a6601483610609565b91506109b182610970565b602082019050919050565b600060208201905081810360008301526109d581610999565b9050919050565b60006109e7826106b0565b91506109f2836106b0565b9250828203905081811115610a0a57610a0961090d565b5b9291505056fea2646970667358221220303fc7b1b72efca5cd37e5ae1606bb92e7a9dd8105446440b898899c5ae9686764736f6c634300081c0033",
  "linkReferences": {},
  "deployedLinkReferences": {}
}